{
	"1-basics/3-events.sol": {
		"Events": {
			"abi": [
				{
					"inputs": [],
					"stateMutability": "nonpayable",
					"type": "constructor"
				},
				{
					"anonymous": false,
					"inputs": [
						{
							"indexed": true,
							"internalType": "address",
							"name": "_from",
							"type": "address"
						},
						{
							"indexed": false,
							"internalType": "uint256",
							"name": "_amount",
							"type": "uint256"
						},
						{
							"indexed": false,
							"internalType": "uint256",
							"name": "_timestamp",
							"type": "uint256"
						}
					],
					"name": "Paid",
					"type": "event"
				},
				{
					"inputs": [],
					"name": "pay",
					"outputs": [],
					"stateMutability": "payable",
					"type": "function"
				},
				{
					"inputs": [
						{
							"internalType": "address payable",
							"name": "_to",
							"type": "address"
						}
					],
					"name": "withdraw",
					"outputs": [],
					"stateMutability": "nonpayable",
					"type": "function"
				},
				{
					"stateMutability": "payable",
					"type": "receive"
				}
			],
			"devdoc": {
				"kind": "dev",
				"methods": {},
				"version": 1
			},
			"evm": {
				"assembly": "    /* \"1-basics/3-events.sol\":57:1054  contract Events {... */\n  mstore(0x40, 0x80)\n    /* \"1-basics/3-events.sol\":341:390  constructor() {... */\n  callvalue\n  dup1\n  iszero\n  tag_1\n  jumpi\n  0x00\n  dup1\n  revert\ntag_1:\n  pop\n    /* \"1-basics/3-events.sol\":373:383  msg.sender */\n  caller\n    /* \"1-basics/3-events.sol\":365:370  owner */\n  0x00\n  dup1\n    /* \"1-basics/3-events.sol\":365:383  owner = msg.sender */\n  0x0100\n  exp\n  dup2\n  sload\n  dup2\n  0xffffffffffffffffffffffffffffffffffffffff\n  mul\n  not\n  and\n  swap1\n  dup4\n  0xffffffffffffffffffffffffffffffffffffffff\n  and\n  mul\n  or\n  swap1\n  sstore\n  pop\n    /* \"1-basics/3-events.sol\":57:1054  contract Events {... */\n  dataSize(sub_0)\n  dup1\n  dataOffset(sub_0)\n  0x00\n  codecopy\n  0x00\n  return\nstop\n\nsub_0: assembly {\n        /* \"1-basics/3-events.sol\":57:1054  contract Events {... */\n      mstore(0x40, 0x80)\n      jumpi(tag_1, lt(calldatasize, 0x04))\n      shr(0xe0, calldataload(0x00))\n      dup1\n      0x1b9265b8\n      eq\n      tag_3\n      jumpi\n      dup1\n      0x51cff8d9\n      eq\n      tag_4\n      jumpi\n      jump(tag_2)\n    tag_1:\n      jumpi(tag_2, calldatasize)\n        /* \"1-basics/3-events.sol\":433:438  pay() */\n      tag_7\n        /* \"1-basics/3-events.sol\":433:436  pay */\n      tag_8\n        /* \"1-basics/3-events.sol\":433:438  pay() */\n      jump\t// in\n    tag_7:\n        /* \"1-basics/3-events.sol\":57:1054  contract Events {... */\n      stop\n    tag_2:\n      0x00\n      dup1\n      revert\n        /* \"1-basics/3-events.sol\":658:754  function pay() public payable {... */\n    tag_3:\n      tag_9\n      tag_8\n      jump\t// in\n    tag_9:\n      stop\n        /* \"1-basics/3-events.sol\":760:1052  function withdraw(address payable _to) external onlyOwner(_to) {... */\n    tag_4:\n      callvalue\n      dup1\n      iszero\n      tag_10\n      jumpi\n      0x00\n      dup1\n      revert\n    tag_10:\n      pop\n      tag_11\n      0x04\n      dup1\n      calldatasize\n      sub\n      dup2\n      add\n      swap1\n      tag_12\n      swap2\n      swap1\n      tag_13\n      jump\t// in\n    tag_12:\n      tag_14\n      jump\t// in\n    tag_11:\n      stop\n        /* \"1-basics/3-events.sol\":658:754  function pay() public payable {... */\n    tag_8:\n        /* \"1-basics/3-events.sol\":708:718  msg.sender */\n      caller\n        /* \"1-basics/3-events.sol\":703:747  Paid(msg.sender, msg.value, block.timestamp) */\n      0xffffffffffffffffffffffffffffffffffffffff\n      and\n      0xdf9a51129930649214df58f542322c245372c6f2fa6fc3c9b40d927c597cd230\n        /* \"1-basics/3-events.sol\":720:729  msg.value */\n      callvalue\n        /* \"1-basics/3-events.sol\":731:746  block.timestamp */\n      timestamp\n        /* \"1-basics/3-events.sol\":703:747  Paid(msg.sender, msg.value, block.timestamp) */\n      mload(0x40)\n      tag_16\n      swap3\n      swap2\n      swap1\n      tag_17\n      jump\t// in\n    tag_16:\n      mload(0x40)\n      dup1\n      swap2\n      sub\n      swap1\n      log2\n        /* \"1-basics/3-events.sol\":658:754  function pay() public payable {... */\n      jump\t// out\n        /* \"1-basics/3-events.sol\":760:1052  function withdraw(address payable _to) external onlyOwner(_to) {... */\n    tag_14:\n        /* \"1-basics/3-events.sol\":818:821  _to */\n      dup1\n        /* \"1-basics/3-events.sol\":515:520  owner */\n      0x00\n      dup1\n      sload\n      swap1\n      0x0100\n      exp\n      swap1\n      div\n      0xffffffffffffffffffffffffffffffffffffffff\n      and\n        /* \"1-basics/3-events.sol\":501:520  msg.sender == owner */\n      0xffffffffffffffffffffffffffffffffffffffff\n      and\n        /* \"1-basics/3-events.sol\":501:511  msg.sender */\n      caller\n        /* \"1-basics/3-events.sol\":501:520  msg.sender == owner */\n      0xffffffffffffffffffffffffffffffffffffffff\n      and\n      eq\n        /* \"1-basics/3-events.sol\":493:546  require(msg.sender == owner, \"You are not an owner!\") */\n      tag_19\n      jumpi\n      mload(0x40)\n      0x08c379a000000000000000000000000000000000000000000000000000000000\n      dup2\n      mstore\n      0x04\n      add\n      tag_20\n      swap1\n      tag_21\n      jump\t// in\n    tag_20:\n      mload(0x40)\n      dup1\n      swap2\n      sub\n      swap1\n      revert\n    tag_19:\n        /* \"1-basics/3-events.sol\":579:580  0 */\n      0x00\n        /* \"1-basics/3-events.sol\":564:581  _to != address(0) */\n      0xffffffffffffffffffffffffffffffffffffffff\n      and\n        /* \"1-basics/3-events.sol\":564:567  _to */\n      dup2\n        /* \"1-basics/3-events.sol\":564:581  _to != address(0) */\n      0xffffffffffffffffffffffffffffffffffffffff\n      and\n      sub\n        /* \"1-basics/3-events.sol\":556:604  require(_to != address(0), \"Incorrect address!\") */\n      tag_22\n      jumpi\n      mload(0x40)\n      0x08c379a000000000000000000000000000000000000000000000000000000000\n      dup2\n      mstore\n      0x04\n      add\n      tag_23\n      swap1\n      tag_24\n      jump\t// in\n    tag_23:\n      mload(0x40)\n      dup1\n      swap2\n      sub\n      swap1\n      revert\n    tag_22:\n        /* \"1-basics/3-events.sol\":855:860  owner */\n      0x00\n      dup1\n      sload\n      swap1\n      0x0100\n      exp\n      swap1\n      div\n      0xffffffffffffffffffffffffffffffffffffffff\n      and\n        /* \"1-basics/3-events.sol\":841:860  msg.sender == owner */\n      0xffffffffffffffffffffffffffffffffffffffff\n      and\n        /* \"1-basics/3-events.sol\":841:851  msg.sender */\n      caller\n        /* \"1-basics/3-events.sol\":841:860  msg.sender == owner */\n      0xffffffffffffffffffffffffffffffffffffffff\n      and\n      eq\n        /* \"1-basics/3-events.sol\":833:886  require(msg.sender == owner, \"You are not an owner!\") */\n      tag_26\n      jumpi\n      mload(0x40)\n      0x08c379a000000000000000000000000000000000000000000000000000000000\n      dup2\n      mstore\n      0x04\n      add\n      tag_27\n      swap1\n      tag_21\n      jump\t// in\n    tag_27:\n      mload(0x40)\n      dup1\n      swap2\n      sub\n      swap1\n      revert\n    tag_26:\n        /* \"1-basics/3-events.sol\":915:920  owner */\n      0x00\n      dup1\n      sload\n      swap1\n      0x0100\n      exp\n      swap1\n      div\n      0xffffffffffffffffffffffffffffffffffffffff\n      and\n        /* \"1-basics/3-events.sol\":901:920  msg.sender != owner */\n      0xffffffffffffffffffffffffffffffffffffffff\n      and\n        /* \"1-basics/3-events.sol\":901:911  msg.sender */\n      caller\n        /* \"1-basics/3-events.sol\":901:920  msg.sender != owner */\n      0xffffffffffffffffffffffffffffffffffffffff\n      and\n      eq\n        /* \"1-basics/3-events.sol\":897:978  if (msg.sender != owner) {... */\n      tag_28\n      jumpi\n        /* \"1-basics/3-events.sol\":936:967  revert(\"You are not an owner!\") */\n      mload(0x40)\n      0x08c379a000000000000000000000000000000000000000000000000000000000\n      dup2\n      mstore\n      0x04\n      add\n      tag_29\n      swap1\n      tag_21\n      jump\t// in\n    tag_29:\n      mload(0x40)\n      dup1\n      swap2\n      sub\n      swap1\n      revert\n        /* \"1-basics/3-events.sol\":897:978  if (msg.sender != owner) {... */\n    tag_28:\n        /* \"1-basics/3-events.sol\":988:991  _to */\n      dup2\n        /* \"1-basics/3-events.sol\":988:1000  _to.transfer */\n      0xffffffffffffffffffffffffffffffffffffffff\n      and\n        /* \"1-basics/3-events.sol\":988:1045  _to.transfer(... */\n      0x08fc\n        /* \"1-basics/3-events.sol\":1014:1035  address(this).balance */\n      selfbalance\n        /* \"1-basics/3-events.sol\":988:1045  _to.transfer(... */\n      swap1\n      dup2\n      iszero\n      mul\n      swap1\n      mload(0x40)\n      0x00\n      mload(0x40)\n      dup1\n      dup4\n      sub\n      dup2\n      dup6\n      dup9\n      dup9\n      call\n      swap4\n      pop\n      pop\n      pop\n      pop\n      iszero\n      dup1\n      iszero\n      tag_31\n      jumpi\n      returndatasize\n      0x00\n      dup1\n      returndatacopy\n      revert(0x00, returndatasize)\n    tag_31:\n      pop\n        /* \"1-basics/3-events.sol\":760:1052  function withdraw(address payable _to) external onlyOwner(_to) {... */\n      pop\n      pop\n      jump\t// out\n        /* \"#utility.yul\":88:205   */\n    tag_33:\n        /* \"#utility.yul\":197:198   */\n      0x00\n        /* \"#utility.yul\":194:195   */\n      dup1\n        /* \"#utility.yul\":187:199   */\n      revert\n        /* \"#utility.yul\":334:460   */\n    tag_35:\n        /* \"#utility.yul\":371:378   */\n      0x00\n        /* \"#utility.yul\":411:453   */\n      0xffffffffffffffffffffffffffffffffffffffff\n        /* \"#utility.yul\":404:409   */\n      dup3\n        /* \"#utility.yul\":400:454   */\n      and\n        /* \"#utility.yul\":389:454   */\n      swap1\n      pop\n        /* \"#utility.yul\":334:460   */\n      swap2\n      swap1\n      pop\n      jump\t// out\n        /* \"#utility.yul\":466:570   */\n    tag_36:\n        /* \"#utility.yul\":511:518   */\n      0x00\n        /* \"#utility.yul\":540:564   */\n      tag_52\n        /* \"#utility.yul\":558:563   */\n      dup3\n        /* \"#utility.yul\":540:564   */\n      tag_35\n      jump\t// in\n    tag_52:\n        /* \"#utility.yul\":529:564   */\n      swap1\n      pop\n        /* \"#utility.yul\":466:570   */\n      swap2\n      swap1\n      pop\n      jump\t// out\n        /* \"#utility.yul\":576:714   */\n    tag_37:\n        /* \"#utility.yul\":657:689   */\n      tag_54\n        /* \"#utility.yul\":683:688   */\n      dup2\n        /* \"#utility.yul\":657:689   */\n      tag_36\n      jump\t// in\n    tag_54:\n        /* \"#utility.yul\":650:655   */\n      dup2\n        /* \"#utility.yul\":647:690   */\n      eq\n        /* \"#utility.yul\":637:708   */\n      tag_55\n      jumpi\n        /* \"#utility.yul\":704:705   */\n      0x00\n        /* \"#utility.yul\":701:702   */\n      dup1\n        /* \"#utility.yul\":694:706   */\n      revert\n        /* \"#utility.yul\":637:708   */\n    tag_55:\n        /* \"#utility.yul\":576:714   */\n      pop\n      jump\t// out\n        /* \"#utility.yul\":720:875   */\n    tag_38:\n        /* \"#utility.yul\":774:779   */\n      0x00\n        /* \"#utility.yul\":812:818   */\n      dup2\n        /* \"#utility.yul\":799:819   */\n      calldataload\n        /* \"#utility.yul\":790:819   */\n      swap1\n      pop\n        /* \"#utility.yul\":828:869   */\n      tag_57\n        /* \"#utility.yul\":863:868   */\n      dup2\n        /* \"#utility.yul\":828:869   */\n      tag_37\n      jump\t// in\n    tag_57:\n        /* \"#utility.yul\":720:875   */\n      swap3\n      swap2\n      pop\n      pop\n      jump\t// out\n        /* \"#utility.yul\":881:1226   */\n    tag_13:\n        /* \"#utility.yul\":948:954   */\n      0x00\n        /* \"#utility.yul\":997:999   */\n      0x20\n        /* \"#utility.yul\":985:994   */\n      dup3\n        /* \"#utility.yul\":976:983   */\n      dup5\n        /* \"#utility.yul\":972:995   */\n      sub\n        /* \"#utility.yul\":968:1000   */\n      slt\n        /* \"#utility.yul\":965:1084   */\n      iszero\n      tag_59\n      jumpi\n        /* \"#utility.yul\":1003:1082   */\n      tag_60\n      tag_33\n      jump\t// in\n    tag_60:\n        /* \"#utility.yul\":965:1084   */\n    tag_59:\n        /* \"#utility.yul\":1123:1124   */\n      0x00\n        /* \"#utility.yul\":1148:1209   */\n      tag_61\n        /* \"#utility.yul\":1201:1208   */\n      dup5\n        /* \"#utility.yul\":1192:1198   */\n      dup3\n        /* \"#utility.yul\":1181:1190   */\n      dup6\n        /* \"#utility.yul\":1177:1199   */\n      add\n        /* \"#utility.yul\":1148:1209   */\n      tag_38\n      jump\t// in\n    tag_61:\n        /* \"#utility.yul\":1138:1209   */\n      swap2\n      pop\n        /* \"#utility.yul\":1094:1219   */\n      pop\n        /* \"#utility.yul\":881:1226   */\n      swap3\n      swap2\n      pop\n      pop\n      jump\t// out\n        /* \"#utility.yul\":1232:1309   */\n    tag_39:\n        /* \"#utility.yul\":1269:1276   */\n      0x00\n        /* \"#utility.yul\":1298:1303   */\n      dup2\n        /* \"#utility.yul\":1287:1303   */\n      swap1\n      pop\n        /* \"#utility.yul\":1232:1309   */\n      swap2\n      swap1\n      pop\n      jump\t// out\n        /* \"#utility.yul\":1315:1433   */\n    tag_40:\n        /* \"#utility.yul\":1402:1426   */\n      tag_64\n        /* \"#utility.yul\":1420:1425   */\n      dup2\n        /* \"#utility.yul\":1402:1426   */\n      tag_39\n      jump\t// in\n    tag_64:\n        /* \"#utility.yul\":1397:1400   */\n      dup3\n        /* \"#utility.yul\":1390:1427   */\n      mstore\n        /* \"#utility.yul\":1315:1433   */\n      pop\n      pop\n      jump\t// out\n        /* \"#utility.yul\":1439:1771   */\n    tag_17:\n        /* \"#utility.yul\":1560:1564   */\n      0x00\n        /* \"#utility.yul\":1598:1600   */\n      0x40\n        /* \"#utility.yul\":1587:1596   */\n      dup3\n        /* \"#utility.yul\":1583:1601   */\n      add\n        /* \"#utility.yul\":1575:1601   */\n      swap1\n      pop\n        /* \"#utility.yul\":1611:1682   */\n      tag_66\n        /* \"#utility.yul\":1679:1680   */\n      0x00\n        /* \"#utility.yul\":1668:1677   */\n      dup4\n        /* \"#utility.yul\":1664:1681   */\n      add\n        /* \"#utility.yul\":1655:1661   */\n      dup6\n        /* \"#utility.yul\":1611:1682   */\n      tag_40\n      jump\t// in\n    tag_66:\n        /* \"#utility.yul\":1692:1764   */\n      tag_67\n        /* \"#utility.yul\":1760:1762   */\n      0x20\n        /* \"#utility.yul\":1749:1758   */\n      dup4\n        /* \"#utility.yul\":1745:1763   */\n      add\n        /* \"#utility.yul\":1736:1742   */\n      dup5\n        /* \"#utility.yul\":1692:1764   */\n      tag_40\n      jump\t// in\n    tag_67:\n        /* \"#utility.yul\":1439:1771   */\n      swap4\n      swap3\n      pop\n      pop\n      pop\n      jump\t// out\n        /* \"#utility.yul\":1777:1946   */\n    tag_41:\n        /* \"#utility.yul\":1861:1872   */\n      0x00\n        /* \"#utility.yul\":1895:1901   */\n      dup3\n        /* \"#utility.yul\":1890:1893   */\n      dup3\n        /* \"#utility.yul\":1883:1902   */\n      mstore\n        /* \"#utility.yul\":1935:1939   */\n      0x20\n        /* \"#utility.yul\":1930:1933   */\n      dup3\n        /* \"#utility.yul\":1926:1940   */\n      add\n        /* \"#utility.yul\":1911:1940   */\n      swap1\n      pop\n        /* \"#utility.yul\":1777:1946   */\n      swap3\n      swap2\n      pop\n      pop\n      jump\t// out\n        /* \"#utility.yul\":1952:2123   */\n    tag_42:\n        /* \"#utility.yul\":2092:2115   */\n      0x596f7520617265206e6f7420616e206f776e6572210000000000000000000000\n        /* \"#utility.yul\":2088:2089   */\n      0x00\n        /* \"#utility.yul\":2080:2086   */\n      dup3\n        /* \"#utility.yul\":2076:2090   */\n      add\n        /* \"#utility.yul\":2069:2116   */\n      mstore\n        /* \"#utility.yul\":1952:2123   */\n      pop\n      jump\t// out\n        /* \"#utility.yul\":2129:2495   */\n    tag_43:\n        /* \"#utility.yul\":2271:2274   */\n      0x00\n        /* \"#utility.yul\":2292:2359   */\n      tag_71\n        /* \"#utility.yul\":2356:2358   */\n      0x15\n        /* \"#utility.yul\":2351:2354   */\n      dup4\n        /* \"#utility.yul\":2292:2359   */\n      tag_41\n      jump\t// in\n    tag_71:\n        /* \"#utility.yul\":2285:2359   */\n      swap2\n      pop\n        /* \"#utility.yul\":2368:2461   */\n      tag_72\n        /* \"#utility.yul\":2457:2460   */\n      dup3\n        /* \"#utility.yul\":2368:2461   */\n      tag_42\n      jump\t// in\n    tag_72:\n        /* \"#utility.yul\":2486:2488   */\n      0x20\n        /* \"#utility.yul\":2481:2484   */\n      dup3\n        /* \"#utility.yul\":2477:2489   */\n      add\n        /* \"#utility.yul\":2470:2489   */\n      swap1\n      pop\n        /* \"#utility.yul\":2129:2495   */\n      swap2\n      swap1\n      pop\n      jump\t// out\n        /* \"#utility.yul\":2501:2920   */\n    tag_21:\n        /* \"#utility.yul\":2667:2671   */\n      0x00\n        /* \"#utility.yul\":2705:2707   */\n      0x20\n        /* \"#utility.yul\":2694:2703   */\n      dup3\n        /* \"#utility.yul\":2690:2708   */\n      add\n        /* \"#utility.yul\":2682:2708   */\n      swap1\n      pop\n        /* \"#utility.yul\":2754:2763   */\n      dup2\n        /* \"#utility.yul\":2748:2752   */\n      dup2\n        /* \"#utility.yul\":2744:2764   */\n      sub\n        /* \"#utility.yul\":2740:2741   */\n      0x00\n        /* \"#utility.yul\":2729:2738   */\n      dup4\n        /* \"#utility.yul\":2725:2742   */\n      add\n        /* \"#utility.yul\":2718:2765   */\n      mstore\n        /* \"#utility.yul\":2782:2913   */\n      tag_74\n        /* \"#utility.yul\":2908:2912   */\n      dup2\n        /* \"#utility.yul\":2782:2913   */\n      tag_43\n      jump\t// in\n    tag_74:\n        /* \"#utility.yul\":2774:2913   */\n      swap1\n      pop\n        /* \"#utility.yul\":2501:2920   */\n      swap2\n      swap1\n      pop\n      jump\t// out\n        /* \"#utility.yul\":2926:3094   */\n    tag_44:\n        /* \"#utility.yul\":3066:3086   */\n      0x496e636f72726563742061646472657373210000000000000000000000000000\n        /* \"#utility.yul\":3062:3063   */\n      0x00\n        /* \"#utility.yul\":3054:3060   */\n      dup3\n        /* \"#utility.yul\":3050:3064   */\n      add\n        /* \"#utility.yul\":3043:3087   */\n      mstore\n        /* \"#utility.yul\":2926:3094   */\n      pop\n      jump\t// out\n        /* \"#utility.yul\":3100:3466   */\n    tag_45:\n        /* \"#utility.yul\":3242:3245   */\n      0x00\n        /* \"#utility.yul\":3263:3330   */\n      tag_77\n        /* \"#utility.yul\":3327:3329   */\n      0x12\n        /* \"#utility.yul\":3322:3325   */\n      dup4\n        /* \"#utility.yul\":3263:3330   */\n      tag_41\n      jump\t// in\n    tag_77:\n        /* \"#utility.yul\":3256:3330   */\n      swap2\n      pop\n        /* \"#utility.yul\":3339:3432   */\n      tag_78\n        /* \"#utility.yul\":3428:3431   */\n      dup3\n        /* \"#utility.yul\":3339:3432   */\n      tag_44\n      jump\t// in\n    tag_78:\n        /* \"#utility.yul\":3457:3459   */\n      0x20\n        /* \"#utility.yul\":3452:3455   */\n      dup3\n        /* \"#utility.yul\":3448:3460   */\n      add\n        /* \"#utility.yul\":3441:3460   */\n      swap1\n      pop\n        /* \"#utility.yul\":3100:3466   */\n      swap2\n      swap1\n      pop\n      jump\t// out\n        /* \"#utility.yul\":3472:3891   */\n    tag_24:\n        /* \"#utility.yul\":3638:3642   */\n      0x00\n        /* \"#utility.yul\":3676:3678   */\n      0x20\n        /* \"#utility.yul\":3665:3674   */\n      dup3\n        /* \"#utility.yul\":3661:3679   */\n      add\n        /* \"#utility.yul\":3653:3679   */\n      swap1\n      pop\n        /* \"#utility.yul\":3725:3734   */\n      dup2\n        /* \"#utility.yul\":3719:3723   */\n      dup2\n        /* \"#utility.yul\":3715:3735   */\n      sub\n        /* \"#utility.yul\":3711:3712   */\n      0x00\n        /* \"#utility.yul\":3700:3709   */\n      dup4\n        /* \"#utility.yul\":3696:3713   */\n      add\n        /* \"#utility.yul\":3689:3736   */\n      mstore\n        /* \"#utility.yul\":3753:3884   */\n      tag_80\n        /* \"#utility.yul\":3879:3883   */\n      dup2\n        /* \"#utility.yul\":3753:3884   */\n      tag_45\n      jump\t// in\n    tag_80:\n        /* \"#utility.yul\":3745:3884   */\n      swap1\n      pop\n        /* \"#utility.yul\":3472:3891   */\n      swap2\n      swap1\n      pop\n      jump\t// out\n\n    auxdata: 0xa2646970667358221220fc6fe21268303bbbd123561d61caaec1d12b675662320956ae25f3bacb9c434364736f6c634300081a0033\n}\n",
				"bytecode": {
					"linkReferences": {},
					"object": "6080604052348015600e575f80fd5b50335f806101000a81548173ffffffffffffffffffffffffffffffffffffffff021916908373ffffffffffffffffffffffffffffffffffffffff1602179055506104ff8061005b5f395ff3fe60806040526004361061002c575f3560e01c80631b9265b81461003f57806351cff8d9146100495761003b565b3661003b57610039610071565b005b5f80fd5b610047610071565b005b348015610054575f80fd5b5061006f600480360381019061006a919061037f565b6100c3565b005b3373ffffffffffffffffffffffffffffffffffffffff167fdf9a51129930649214df58f542322c245372c6f2fa6fc3c9b40d927c597cd23034426040516100b99291906103c2565b60405180910390a2565b805f8054906101000a900473ffffffffffffffffffffffffffffffffffffffff1673ffffffffffffffffffffffffffffffffffffffff163373ffffffffffffffffffffffffffffffffffffffff1614610151576040517f08c379a000000000000000000000000000000000000000000000000000000000815260040161014890610443565b60405180910390fd5b5f73ffffffffffffffffffffffffffffffffffffffff168173ffffffffffffffffffffffffffffffffffffffff16036101bf576040517f08c379a00000000000000000000000000000000000000000000000000000000081526004016101b6906104ab565b60405180910390fd5b5f8054906101000a900473ffffffffffffffffffffffffffffffffffffffff1673ffffffffffffffffffffffffffffffffffffffff163373ffffffffffffffffffffffffffffffffffffffff161461024c576040517f08c379a000000000000000000000000000000000000000000000000000000000815260040161024390610443565b60405180910390fd5b5f8054906101000a900473ffffffffffffffffffffffffffffffffffffffff1673ffffffffffffffffffffffffffffffffffffffff163373ffffffffffffffffffffffffffffffffffffffff16146102d9576040517f08c379a00000000000000000000000000000000000000000000000000000000081526004016102d090610443565b60405180910390fd5b8173ffffffffffffffffffffffffffffffffffffffff166108fc4790811502906040515f60405180830381858888f1935050505015801561031c573d5f803e3d5ffd5b505050565b5f80fd5b5f73ffffffffffffffffffffffffffffffffffffffff82169050919050565b5f61034e82610325565b9050919050565b61035e81610344565b8114610368575f80fd5b50565b5f8135905061037981610355565b92915050565b5f6020828403121561039457610393610321565b5b5f6103a18482850161036b565b91505092915050565b5f819050919050565b6103bc816103aa565b82525050565b5f6040820190506103d55f8301856103b3565b6103e260208301846103b3565b9392505050565b5f82825260208201905092915050565b7f596f7520617265206e6f7420616e206f776e65722100000000000000000000005f82015250565b5f61042d6015836103e9565b9150610438826103f9565b602082019050919050565b5f6020820190508181035f83015261045a81610421565b9050919050565b7f496e636f727265637420616464726573732100000000000000000000000000005f82015250565b5f6104956012836103e9565b91506104a082610461565b602082019050919050565b5f6020820190508181035f8301526104c281610489565b905091905056fea2646970667358221220fc6fe21268303bbbd123561d61caaec1d12b675662320956ae25f3bacb9c434364736f6c634300081a0033",
					"opcodes": "PUSH1 0x80 PUSH1 0x40 MSTORE CALLVALUE DUP1 ISZERO PUSH1 0xE JUMPI PUSH0 DUP1 REVERT JUMPDEST POP CALLER PUSH0 DUP1 PUSH2 0x100 EXP DUP2 SLOAD DUP2 PUSH20 0xFFFFFFFFFFFFFFFFFFFFFFFFFFFFFFFFFFFFFFFF MUL NOT AND SWAP1 DUP4 PUSH20 0xFFFFFFFFFFFFFFFFFFFFFFFFFFFFFFFFFFFFFFFF AND MUL OR SWAP1 SSTORE POP PUSH2 0x4FF DUP1 PUSH2 0x5B PUSH0 CODECOPY PUSH0 RETURN INVALID PUSH1 0x80 PUSH1 0x40 MSTORE PUSH1 0x4 CALLDATASIZE LT PUSH2 0x2C JUMPI PUSH0 CALLDATALOAD PUSH1 0xE0 SHR DUP1 PUSH4 0x1B9265B8 EQ PUSH2 0x3F JUMPI DUP1 PUSH4 0x51CFF8D9 EQ PUSH2 0x49 JUMPI PUSH2 0x3B JUMP JUMPDEST CALLDATASIZE PUSH2 0x3B JUMPI PUSH2 0x39 PUSH2 0x71 JUMP JUMPDEST STOP JUMPDEST PUSH0 DUP1 REVERT JUMPDEST PUSH2 0x47 PUSH2 0x71 JUMP JUMPDEST STOP JUMPDEST CALLVALUE DUP1 ISZERO PUSH2 0x54 JUMPI PUSH0 DUP1 REVERT JUMPDEST POP PUSH2 0x6F PUSH1 0x4 DUP1 CALLDATASIZE SUB DUP2 ADD SWAP1 PUSH2 0x6A SWAP2 SWAP1 PUSH2 0x37F JUMP JUMPDEST PUSH2 0xC3 JUMP JUMPDEST STOP JUMPDEST CALLER PUSH20 0xFFFFFFFFFFFFFFFFFFFFFFFFFFFFFFFFFFFFFFFF AND PUSH32 0xDF9A51129930649214DF58F542322C245372C6F2FA6FC3C9B40D927C597CD230 CALLVALUE TIMESTAMP PUSH1 0x40 MLOAD PUSH2 0xB9 SWAP3 SWAP2 SWAP1 PUSH2 0x3C2 JUMP JUMPDEST PUSH1 0x40 MLOAD DUP1 SWAP2 SUB SWAP1 LOG2 JUMP JUMPDEST DUP1 PUSH0 DUP1 SLOAD SWAP1 PUSH2 0x100 EXP SWAP1 DIV PUSH20 0xFFFFFFFFFFFFFFFFFFFFFFFFFFFFFFFFFFFFFFFF AND PUSH20 0xFFFFFFFFFFFFFFFFFFFFFFFFFFFFFFFFFFFFFFFF AND CALLER PUSH20 0xFFFFFFFFFFFFFFFFFFFFFFFFFFFFFFFFFFFFFFFF AND EQ PUSH2 0x151 JUMPI PUSH1 0x40 MLOAD PUSH32 0x8C379A000000000000000000000000000000000000000000000000000000000 DUP2 MSTORE PUSH1 0x4 ADD PUSH2 0x148 SWAP1 PUSH2 0x443 JUMP JUMPDEST PUSH1 0x40 MLOAD DUP1 SWAP2 SUB SWAP1 REVERT JUMPDEST PUSH0 PUSH20 0xFFFFFFFFFFFFFFFFFFFFFFFFFFFFFFFFFFFFFFFF AND DUP2 PUSH20 0xFFFFFFFFFFFFFFFFFFFFFFFFFFFFFFFFFFFFFFFF AND SUB PUSH2 0x1BF JUMPI PUSH1 0x40 MLOAD PUSH32 0x8C379A000000000000000000000000000000000000000000000000000000000 DUP2 MSTORE PUSH1 0x4 ADD PUSH2 0x1B6 SWAP1 PUSH2 0x4AB JUMP JUMPDEST PUSH1 0x40 MLOAD DUP1 SWAP2 SUB SWAP1 REVERT JUMPDEST PUSH0 DUP1 SLOAD SWAP1 PUSH2 0x100 EXP SWAP1 DIV PUSH20 0xFFFFFFFFFFFFFFFFFFFFFFFFFFFFFFFFFFFFFFFF AND PUSH20 0xFFFFFFFFFFFFFFFFFFFFFFFFFFFFFFFFFFFFFFFF AND CALLER PUSH20 0xFFFFFFFFFFFFFFFFFFFFFFFFFFFFFFFFFFFFFFFF AND EQ PUSH2 0x24C JUMPI PUSH1 0x40 MLOAD PUSH32 0x8C379A000000000000000000000000000000000000000000000000000000000 DUP2 MSTORE PUSH1 0x4 ADD PUSH2 0x243 SWAP1 PUSH2 0x443 JUMP JUMPDEST PUSH1 0x40 MLOAD DUP1 SWAP2 SUB SWAP1 REVERT JUMPDEST PUSH0 DUP1 SLOAD SWAP1 PUSH2 0x100 EXP SWAP1 DIV PUSH20 0xFFFFFFFFFFFFFFFFFFFFFFFFFFFFFFFFFFFFFFFF AND PUSH20 0xFFFFFFFFFFFFFFFFFFFFFFFFFFFFFFFFFFFFFFFF AND CALLER PUSH20 0xFFFFFFFFFFFFFFFFFFFFFFFFFFFFFFFFFFFFFFFF AND EQ PUSH2 0x2D9 JUMPI PUSH1 0x40 MLOAD PUSH32 0x8C379A000000000000000000000000000000000000000000000000000000000 DUP2 MSTORE PUSH1 0x4 ADD PUSH2 0x2D0 SWAP1 PUSH2 0x443 JUMP JUMPDEST PUSH1 0x40 MLOAD DUP1 SWAP2 SUB SWAP1 REVERT JUMPDEST DUP2 PUSH20 0xFFFFFFFFFFFFFFFFFFFFFFFFFFFFFFFFFFFFFFFF AND PUSH2 0x8FC SELFBALANCE SWAP1 DUP2 ISZERO MUL SWAP1 PUSH1 0x40 MLOAD PUSH0 PUSH1 0x40 MLOAD DUP1 DUP4 SUB DUP2 DUP6 DUP9 DUP9 CALL SWAP4 POP POP POP POP ISZERO DUP1 ISZERO PUSH2 0x31C JUMPI RETURNDATASIZE PUSH0 DUP1 RETURNDATACOPY RETURNDATASIZE PUSH0 REVERT JUMPDEST POP POP POP JUMP JUMPDEST PUSH0 DUP1 REVERT JUMPDEST PUSH0 PUSH20 0xFFFFFFFFFFFFFFFFFFFFFFFFFFFFFFFFFFFFFFFF DUP3 AND SWAP1 POP SWAP2 SWAP1 POP JUMP JUMPDEST PUSH0 PUSH2 0x34E DUP3 PUSH2 0x325 JUMP JUMPDEST SWAP1 POP SWAP2 SWAP1 POP JUMP JUMPDEST PUSH2 0x35E DUP2 PUSH2 0x344 JUMP JUMPDEST DUP2 EQ PUSH2 0x368 JUMPI PUSH0 DUP1 REVERT JUMPDEST POP JUMP JUMPDEST PUSH0 DUP2 CALLDATALOAD SWAP1 POP PUSH2 0x379 DUP2 PUSH2 0x355 JUMP JUMPDEST SWAP3 SWAP2 POP POP JUMP JUMPDEST PUSH0 PUSH1 0x20 DUP3 DUP5 SUB SLT ISZERO PUSH2 0x394 JUMPI PUSH2 0x393 PUSH2 0x321 JUMP JUMPDEST JUMPDEST PUSH0 PUSH2 0x3A1 DUP5 DUP3 DUP6 ADD PUSH2 0x36B JUMP JUMPDEST SWAP2 POP POP SWAP3 SWAP2 POP POP JUMP JUMPDEST PUSH0 DUP2 SWAP1 POP SWAP2 SWAP1 POP JUMP JUMPDEST PUSH2 0x3BC DUP2 PUSH2 0x3AA JUMP JUMPDEST DUP3 MSTORE POP POP JUMP JUMPDEST PUSH0 PUSH1 0x40 DUP3 ADD SWAP1 POP PUSH2 0x3D5 PUSH0 DUP4 ADD DUP6 PUSH2 0x3B3 JUMP JUMPDEST PUSH2 0x3E2 PUSH1 0x20 DUP4 ADD DUP5 PUSH2 0x3B3 JUMP JUMPDEST SWAP4 SWAP3 POP POP POP JUMP JUMPDEST PUSH0 DUP3 DUP3 MSTORE PUSH1 0x20 DUP3 ADD SWAP1 POP SWAP3 SWAP2 POP POP JUMP JUMPDEST PUSH32 0x596F7520617265206E6F7420616E206F776E6572210000000000000000000000 PUSH0 DUP3 ADD MSTORE POP JUMP JUMPDEST PUSH0 PUSH2 0x42D PUSH1 0x15 DUP4 PUSH2 0x3E9 JUMP JUMPDEST SWAP2 POP PUSH2 0x438 DUP3 PUSH2 0x3F9 JUMP JUMPDEST PUSH1 0x20 DUP3 ADD SWAP1 POP SWAP2 SWAP1 POP JUMP JUMPDEST PUSH0 PUSH1 0x20 DUP3 ADD SWAP1 POP DUP2 DUP2 SUB PUSH0 DUP4 ADD MSTORE PUSH2 0x45A DUP2 PUSH2 0x421 JUMP JUMPDEST SWAP1 POP SWAP2 SWAP1 POP JUMP JUMPDEST PUSH32 0x496E636F72726563742061646472657373210000000000000000000000000000 PUSH0 DUP3 ADD MSTORE POP JUMP JUMPDEST PUSH0 PUSH2 0x495 PUSH1 0x12 DUP4 PUSH2 0x3E9 JUMP JUMPDEST SWAP2 POP PUSH2 0x4A0 DUP3 PUSH2 0x461 JUMP JUMPDEST PUSH1 0x20 DUP3 ADD SWAP1 POP SWAP2 SWAP1 POP JUMP JUMPDEST PUSH0 PUSH1 0x20 DUP3 ADD SWAP1 POP DUP2 DUP2 SUB PUSH0 DUP4 ADD MSTORE PUSH2 0x4C2 DUP2 PUSH2 0x489 JUMP JUMPDEST SWAP1 POP SWAP2 SWAP1 POP JUMP INVALID LOG2 PUSH5 0x6970667358 0x22 SLT KECCAK256 0xFC PUSH16 0xE21268303BBBD123561D61CAAEC1D12B PUSH8 0x5662320956AE25F3 0xBA 0xCB SWAP13 NUMBER NUMBER PUSH5 0x736F6C6343 STOP ADDMOD BYTE STOP CALLER "
				},
				"gasEstimates": {
					"creation": {
						"codeDepositCost": "255800",
						"executionCost": "24557",
						"totalCost": "280357"
					},
					"external": {
						"pay()": "infinite",
						"withdraw(address)": "infinite"
					}
				},
				"methodIdentifiers": {
					"pay()": "1b9265b8",
					"withdraw(address)": "51cff8d9"
				}
			},
			"storageLayout": {
				"storage": [
					{
						"astId": 3,
						"contract": "1-basics/3-events.sol:Events",
						"label": "owner",
						"offset": 0,
						"slot": "0",
						"type": "t_address"
					}
				],
				"types": {
					"t_address": {
						"encoding": "inplace",
						"label": "address",
						"numberOfBytes": "20"
					}
				}
			},
			"userdoc": {
				"kind": "user",
				"methods": {},
				"version": 1
			}
		}
	}
}